{
  "contractName": "SimpleStorage",
  "abi": [
    {
      "constant": true,
      "inputs": [],
      "name": "data",
      "outputs": [
        {
          "name": "",
          "type": "uint256"
        }
      ],
      "payable": false,
      "stateMutability": "view",
      "type": "function"
    },
    {
      "constant": true,
      "inputs": [
        {
          "name": "",
          "type": "uint256"
        }
      ],
      "name": "allData",
      "outputs": [
        {
          "name": "",
          "type": "uint256"
        }
      ],
      "payable": false,
      "stateMutability": "view",
      "type": "function"
    },
    {
      "inputs": [
        {
          "name": "_link",
          "type": "address"
        }
      ],
      "payable": false,
      "stateMutability": "nonpayable",
      "type": "constructor"
    },
    {
      "anonymous": false,
      "inputs": [
        {
          "indexed": true,
          "name": "id",
          "type": "bytes32"
        }
      ],
      "name": "ChainlinkRequested",
      "type": "event"
    },
    {
      "anonymous": false,
      "inputs": [
        {
          "indexed": true,
          "name": "id",
          "type": "bytes32"
        }
      ],
      "name": "ChainlinkFulfilled",
      "type": "event"
    },
    {
      "anonymous": false,
      "inputs": [
        {
          "indexed": true,
          "name": "id",
          "type": "bytes32"
        }
      ],
      "name": "ChainlinkCancelled",
      "type": "event"
    },
    {
      "constant": true,
      "inputs": [],
      "name": "getChainlinkToken",
      "outputs": [
        {
          "name": "",
          "type": "address"
        }
      ],
      "payable": false,
      "stateMutability": "view",
      "type": "function"
    },
    {
      "constant": false,
      "inputs": [
        {
          "name": "_oracle",
          "type": "address"
        },
        {
          "name": "_jobId",
          "type": "bytes32"
        },
        {
          "name": "_payment",
          "type": "uint256"
        },
        {
          "name": "_url",
          "type": "string"
        },
        {
          "name": "_path",
          "type": "string"
        },
        {
          "name": "_times",
          "type": "int256"
        }
      ],
      "name": "createRequestTo",
      "outputs": [
        {
          "name": "requestId",
          "type": "bytes32"
        }
      ],
      "payable": false,
      "stateMutability": "nonpayable",
      "type": "function"
    },
    {
      "constant": false,
      "inputs": [
        {
          "name": "_requestId",
          "type": "bytes32"
        },
        {
          "name": "_data",
          "type": "uint256"
        }
      ],
      "name": "fulfill",
      "outputs": [],
      "payable": false,
      "stateMutability": "nonpayable",
      "type": "function"
    },
    {
      "constant": false,
      "inputs": [],
      "name": "withdrawLink",
      "outputs": [],
      "payable": false,
      "stateMutability": "nonpayable",
      "type": "function"
    },
    {
      "constant": false,
      "inputs": [
        {
          "name": "_requestId",
          "type": "bytes32"
        },
        {
          "name": "_payment",
          "type": "uint256"
        },
        {
          "name": "_callbackFunctionId",
          "type": "bytes4"
        },
        {
          "name": "_expiration",
          "type": "uint256"
        }
      ],
      "name": "cancelRequest",
      "outputs": [],
      "payable": false,
      "stateMutability": "nonpayable",
      "type": "function"
    },
    {
      "constant": false,
      "inputs": [],
      "name": "getData",
      "outputs": [
        {
          "name": "",
          "type": "uint256"
        }
      ],
      "payable": false,
      "stateMutability": "nonpayable",
      "type": "function"
    },
    {
      "constant": true,
      "inputs": [],
      "name": "getAllData",
      "outputs": [
        {
          "name": "",
          "type": "uint256[]"
        }
      ],
      "payable": false,
      "stateMutability": "view",
      "type": "function"
    }
  ],
  "bytecode": "0x6080604052600160045560016006553480156200001b57600080fd5b506040516020806200193883398101806040528101908080519060200190929190505050600073ffffffffffffffffffffffffffffffffffffffff168173ffffffffffffffffffffffffffffffffffffffff16141562000094576200008e620000b6640100000000026401000000009004565b620000af565b620000ae8162000187640100000000026401000000009004565b5b50620001cb565b6200018573c89bd4e1632d3a43cb03aaad5262cbe4038bc57173ffffffffffffffffffffffffffffffffffffffff166338cc48316040518163ffffffff167c0100000000000000000000000000000000000000000000000000000000028152600401602060405180830381600087803b1580156200013357600080fd5b505af115801562000148573d6000803e3d6000fd5b505050506040513d60208110156200015f57600080fd5b810190808051906020019092919050505062000187640100000000026401000000009004565b565b80600260006101000a81548173ffffffffffffffffffffffffffffffffffffffff021916908373ffffffffffffffffffffffffffffffffffffffff16021790555050565b61175d80620001db6000396000f300608060405260043610610099576000357c0100000000000000000000000000000000000000000000000000000000900463ffffffff168063165d35e11461009e57806316ef7f1a146100f55780632d10fa28146102025780633bc5de301461026e5780634357855e1461029957806373d4a13a146102d45780638dc654a2146102ff578063a48d224e14610316578063ec65d0f814610357575b600080fd5b3480156100aa57600080fd5b506100b36103c5565b604051808273ffffffffffffffffffffffffffffffffffffffff1673ffffffffffffffffffffffffffffffffffffffff16815260200191505060405180910390f35b34801561010157600080fd5b506101e4600480360381019080803573ffffffffffffffffffffffffffffffffffffffff169060200190929190803560001916906020019092919080359060200190929190803590602001908201803590602001908080601f0160208091040260200160405190810160405280939291908181526020018383808284378201915050505050509192919290803590602001908201803590602001908080601f0160208091040260200160405190810160405280939291908181526020018383808284378201915050505050509192919290803590602001909291905050506103d4565b60405180826000191660001916815260200191505060405180910390f35b34801561020e57600080fd5b50610217610504565b6040518080602001828103825283818151815260200191508051906020019060200280838360005b8381101561025a57808201518184015260208101905061023f565b505050509050019250505060405180910390f35b34801561027a57600080fd5b5061028361055c565b6040518082815260200191505060405180910390f35b3480156102a557600080fd5b506102d2600480360381019080803560001916906020019092919080359060200190929190505050610566565b005b3480156102e057600080fd5b506102e9610714565b6040518082815260200191505060405180910390f35b34801561030b57600080fd5b5061031461071a565b005b34801561032257600080fd5b5061034160048036038101908080359060200190929190505050610950565b6040518082815260200191505060405180910390f35b34801561036357600080fd5b506103c360048036038101908080356000191690602001909291908035906020019092919080357bffffffffffffffffffffffffffffffffffffffffffffffffffffffff1916906020019092919080359060200190929190505050610973565b005b60006103cf610985565b905090565b60006103de61168f565b61040c8730634357855e7c0100000000000000000000000000000000000000000000000000000000026109af565b90506104586040805190810160405280600381526020017f75726c000000000000000000000000000000000000000000000000000000000081525086836109e09092919063ffffffff16565b6104a26040805190810160405280600481526020017f706174680000000000000000000000000000000000000000000000000000000081525085836109e09092919063ffffffff16565b6104ec6040805190810160405280600581526020017f74696d65730000000000000000000000000000000000000000000000000000008152508483610a139092919063ffffffff16565b6104f7888288610a46565b9150509695505050505050565b6060600780548060200260200160405190810160405280929190818152602001828054801561055257602002820191906000526020600020905b81548152602001906001019080831161053e575b5050505050905090565b6000600654905090565b8160056000826000191660001916815260200190815260200160002060009054906101000a900473ffffffffffffffffffffffffffffffffffffffff1673ffffffffffffffffffffffffffffffffffffffff163373ffffffffffffffffffffffffffffffffffffffff1614151561066b576040517f08c379a00000000000000000000000000000000000000000000000000000000081526004018080602001828103825260288152602001807f536f75726365206d75737420626520746865206f7261636c65206f662074686581526020017f207265717565737400000000000000000000000000000000000000000000000081525060400191505060405180910390fd5b60056000826000191660001916815260200190815260200160002060006101000a81549073ffffffffffffffffffffffffffffffffffffffff021916905580600019167f7cc135e0cebb02c3480ae5d74d377283180a2601f8f644edf7987b009316c63a60405160405180910390a28160068190555060076006549080600181540180825580915050906001820390600052602060002001600090919290919091505550505050565b60065481565b6000610724610985565b90508073ffffffffffffffffffffffffffffffffffffffff1663a9059cbb338373ffffffffffffffffffffffffffffffffffffffff166370a08231306040518263ffffffff167c0100000000000000000000000000000000000000000000000000000000028152600401808273ffffffffffffffffffffffffffffffffffffffff1673ffffffffffffffffffffffffffffffffffffffff168152602001915050602060405180830381600087803b1580156107de57600080fd5b505af11580156107f2573d6000803e3d6000fd5b505050506040513d602081101561080857600080fd5b81019080805190602001909291905050506040518363ffffffff167c0100000000000000000000000000000000000000000000000000000000028152600401808373ffffffffffffffffffffffffffffffffffffffff1673ffffffffffffffffffffffffffffffffffffffff16815260200182815260200192505050602060405180830381600087803b15801561089e57600080fd5b505af11580156108b2573d6000803e3d6000fd5b505050506040513d60208110156108c857600080fd5b8101908080519060200190929190505050151561094d576040517f08c379a00000000000000000000000000000000000000000000000000000000081526004018080602001828103825260128152602001807f556e61626c6520746f207472616e73666572000000000000000000000000000081525060200191505060405180910390fd5b50565b60078181548110151561095f57fe5b906000526020600020016000915090505481565b61097f84848484610dd2565b50505050565b6000600260009054906101000a900473ffffffffffffffffffffffffffffffffffffffff16905090565b6109b761168f565b6109bf61168f565b6109d685858584610f6d909392919063ffffffff16565b9150509392505050565b6109f782846080015161102790919063ffffffff16565b610a0e81846080015161102790919063ffffffff16565b505050565b610a2a82846080015161102790919063ffffffff16565b610a4181846080015161104c90919063ffffffff16565b505050565b600030600454604051602001808373ffffffffffffffffffffffffffffffffffffffff1673ffffffffffffffffffffffffffffffffffffffff166c01000000000000000000000000028152601401828152602001925050506040516020818303038152906040526040518082805190602001908083835b602083101515610ae25780518252602082019150602081019050602083039250610abd565b6001836020036101000a038019825116818451168082178552505050505050905001915050604051809103902090506004548360600181815250508360056000836000191660001916815260200190815260200160002060006101000a81548173ffffffffffffffffffffffffffffffffffffffff021916908373ffffffffffffffffffffffffffffffffffffffff16021790555080600019167fb5e6e01e79f91267dc17b4e6314d5d4d03593d2ceee0fbb452b750bd70ea5af960405160405180910390a2600260009054906101000a900473ffffffffffffffffffffffffffffffffffffffff1673ffffffffffffffffffffffffffffffffffffffff16634000aea08584610bf18761109a565b6040518463ffffffff167c0100000000000000000000000000000000000000000000000000000000028152600401808473ffffffffffffffffffffffffffffffffffffffff1673ffffffffffffffffffffffffffffffffffffffff16815260200183815260200180602001828103825283818151815260200191508051906020019080838360005b83811015610c94578082015181840152602081019050610c79565b50505050905090810190601f168015610cc15780820380516001836020036101000a031916815260200191505b50945050505050602060405180830381600087803b158015610ce257600080fd5b505af1158015610cf6573d6000803e3d6000fd5b505050506040513d6020811015610d0c57600080fd5b81019080805190602001909291905050501515610db7576040517f08c379a00000000000000000000000000000000000000000000000000000000081526004018080602001828103825260238152602001807f756e61626c6520746f207472616e73666572416e6443616c6c20746f206f726181526020017f636c65000000000000000000000000000000000000000000000000000000000081525060400191505060405180910390fd5b60016004600082825401925050819055508090509392505050565b600060056000866000191660001916815260200190815260200160002060009054906101000a900473ffffffffffffffffffffffffffffffffffffffff16905060056000866000191660001916815260200190815260200160002060006101000a81549073ffffffffffffffffffffffffffffffffffffffff021916905584600019167fe1fe3afa0f7f761ff0a8b89086790efd5140d2907ebd5b7ff6bfcb5e075fd4c560405160405180910390a28073ffffffffffffffffffffffffffffffffffffffff16636ee4d553868686866040518563ffffffff167c0100000000000000000000000000000000000000000000000000000000028152600401808560001916600019168152602001848152602001837bffffffffffffffffffffffffffffffffffffffffffffffffffffffff19167bffffffffffffffffffffffffffffffffffffffffffffffffffffffff19168152602001828152602001945050505050600060405180830381600087803b158015610f4e57600080fd5b505af1158015610f62573d6000803e3d6000fd5b505050505050505050565b610f7561168f565b610f8585608001516101006112c5565b50838560000190600019169081600019168152505082856020019073ffffffffffffffffffffffffffffffffffffffff16908173ffffffffffffffffffffffffffffffffffffffff16815250508185604001907bffffffffffffffffffffffffffffffffffffffffffffffffffffffff191690817bffffffffffffffffffffffffffffffffffffffffffffffffffffffff191681525050849050949350505050565b611034826003835161131f565b611047818361147d90919063ffffffff16565b505050565b600081121515611067576110628260008361131f565b611096565b611095826001837fffffffffffffffffffffffffffffffffffffffffffffffffffffffffffffffff0361131f565b5b5050565b6060600360009054906101000a900473ffffffffffffffffffffffffffffffffffffffff1673ffffffffffffffffffffffffffffffffffffffff16634042994690507c01000000000000000000000000000000000000000000000000000000000260008084600001518560200151866040015187606001516001896080015160000151604051602401808973ffffffffffffffffffffffffffffffffffffffff1673ffffffffffffffffffffffffffffffffffffffff16815260200188815260200187600019166000191681526020018673ffffffffffffffffffffffffffffffffffffffff1673ffffffffffffffffffffffffffffffffffffffff168152602001857bffffffffffffffffffffffffffffffffffffffffffffffffffffffff19167bffffffffffffffffffffffffffffffffffffffffffffffffffffffff1916815260200184815260200183815260200180602001828103825283818151815260200191508051906020019080838360005b8381101561122857808201518184015260208101905061120d565b50505050905090810190601f1680156112555780820380516001836020036101000a031916815260200191505b509950505050505050505050604051602081830303815290604052907bffffffffffffffffffffffffffffffffffffffffffffffffffffffff19166020820180517bffffffffffffffffffffffffffffffffffffffffffffffffffffffff83818316178352505050509050919050565b6112cd6116fd565b60006020838115156112db57fe5b061415156112f8576020828115156112ef57fe5b06602003820191505b81836020018181525050604051808452600081528281016020016040525082905092915050565b6017811115156113515761134b8160058460ff169060020a0260ff16178461149f90919063ffffffff16565b50611478565b60ff811115156113985761137b601860058460ff169060020a02178461149f90919063ffffffff16565b50611392816001856114bf9092919063ffffffff16565b50611477565b61ffff811115156113e0576113c3601960058460ff169060020a02178461149f90919063ffffffff16565b506113da816002856114bf9092919063ffffffff16565b50611476565b63ffffffff8111151561142a5761140d601a60058460ff169060020a02178461149f90919063ffffffff16565b50611424816004856114bf9092919063ffffffff16565b50611475565b67ffffffffffffffff811115156114745761145b601b60058460ff169060020a02178461149f90919063ffffffff16565b50611472816008856114bf9092919063ffffffff16565b505b5b5b5b5b505050565b6114856116fd565b611497838460000151518485516114e1565b905092915050565b6114a76116fd565b6114b7838460000151518461159e565b905092915050565b6114c76116fd565b6114d88485600001515185856115ee565b90509392505050565b6114e96116fd565b6000806000855185111515156114fe57600080fd5b87602001518588011115611529576115288860026115228b602001518b8a0161164f565b0261166b565b5b8751805188602083010194508089880111156115455788870182525b60208801935050505b602085101515611573578151835260208301925060208201915060208503945061154e565b6001856020036101000a03905080198251168184511681811785525050879350505050949350505050565b6115a66116fd565b8360200151831015156115c5576115c484600286602001510261166b565b5b83518051602085830101848153818614156115e1576001820183525b5050508390509392505050565b6115f66116fd565b600085602001518584011115611616576116158660028786010261166b565b5b6001836101000a03905085518386820101858319825116178152815185880111156116415784870182525b505085915050949350505050565b60008183111561166157829050611665565b8190505b92915050565b60608260000151905061167e83836112c5565b50611689838261147d565b50505050565b60c06040519081016040528060008019168152602001600073ffffffffffffffffffffffffffffffffffffffff16815260200160007bffffffffffffffffffffffffffffffffffffffffffffffffffffffff19168152602001600081526020016116f7611717565b81525090565b604080519081016040528060608152602001600081525090565b6040805190810160405280606081526020016000815250905600a165627a7a723058205358223303dc43b10c200da107621d479320768d942d943a532990c457cb2a0d0029",
  "source": "pragma solidity 0.4.24;\n\nimport \"@chainlink/contracts/src/v0.4/ChainlinkClient.sol\";\n\n\n//import \"openzeppelin-solidity/contracts/ownership/Ownable.sol\";\n\n/**\n * @title SimpleStorage is an example contract which requests data from\n * the Chainlink network\n * @dev This contract is designed to work on multiple networks, including\n * local test networks\n */\ncontract SimpleStorage is ChainlinkClient {\n    uint256 public data = 1;\n    uint256[] public allData;\n\n    /**\n     * @notice Deploy the contract with a specified address for the LINK\n     * and Oracle contract addresses\n     * @dev Sets the storage for the specified addresses\n     * @param _link The address of the LINK token contract\n     */\n    constructor(address _link) public {\n        if (_link == address(0)) {\n            setPublicChainlinkToken();\n        } else {\n            setChainlinkToken(_link);\n        }\n    }\n\n    /**\n     * @notice Returns the address of the LINK token\n     * @dev This is the public implementation for chainlinkTokenAddress, which is\n     * an internal method of the ChainlinkClient contract\n     */\n    function getChainlinkToken() public view returns (address) {\n        return chainlinkTokenAddress();\n    }\n\n    /**\n     * @notice Creates a request to the specified Oracle contract address\n     * @dev This function ignores the stored Oracle contract address and\n     * will instead send the request to the address specified\n     * @param _oracle The Oracle contract address to send the request to\n     * @param _jobId The bytes32 JobID to be executed\n     * @param _url The URL to fetch data from\n     * @param _path The dot-delimited path to parse of the response\n     * @param _times The number to multiply the result by\n     */\n    function createRequestTo(\n        address _oracle,\n        bytes32 _jobId,\n        uint256 _payment,\n        string memory _url,\n        string memory _path,\n        int256 _times\n    ) public returns (bytes32 requestId) {\n        Chainlink.Request memory req = buildChainlinkRequest(\n            _jobId,\n            address(this),\n            this.fulfill.selector\n        );\n        req.add(\"url\", _url);\n        req.add(\"path\", _path);\n        req.addInt(\"times\", _times);\n        requestId = sendChainlinkRequestTo(_oracle, req, _payment);\n    }\n\n    /**\n     * @notice The fulfill method from requests created by this contract\n     * @dev The recordChainlinkFulfillment protects this function from being called\n     * by anyone other than the oracle address that the request was sent to\n     * @param _requestId The ID that was generated for the request\n     * @param _data The answer provided by the oracle\n     */\n    function fulfill(bytes32 _requestId, uint256 _data)\n        public\n        recordChainlinkFulfillment(_requestId)\n    {\n        data = _data;\n        allData.push(data);\n    }\n\n    /**\n     * @notice Allows the owner to withdraw any LINK balance on the contract\n     */\n    function withdrawLink() public {\n        LinkTokenInterface link = LinkTokenInterface(chainlinkTokenAddress());\n        require(\n            link.transfer(msg.sender, link.balanceOf(address(this))),\n            \"Unable to transfer\"\n        );\n    }\n\n    /**\n     * @notice Call this method if no response is received within 5 minutes\n     * @param _requestId The ID that was generated for the request to cancel\n     * @param _payment The payment specified for the request to cancel\n     * @param _callbackFunctionId The bytes4 callback function ID specified for\n     * the request to cancel\n     * @param _expiration The expiration generated for the request to cancel\n     */\n    function cancelRequest(\n        bytes32 _requestId,\n        uint256 _payment,\n        bytes4 _callbackFunctionId,\n        uint256 _expiration\n    ) public {\n        cancelChainlinkRequest(\n            _requestId,\n            _payment,\n            _callbackFunctionId,\n            _expiration\n        );\n    }\n\n    function getData() public returns (uint256) {\n        return data;\n    }\n\n    function getAllData() public view returns (uint256[]) {\n        return allData;\n    }\n}\n",
  "sourcePath": "D:\\Documents\\Project\\React-Chainlink Weather\\contracts\\SimpleStorage.sol",
  "compiler": {
    "name": "solc",
    "version": "0.4.24+commit.e67f0147.Emscripten.clang"
  },
  "schemaVersion": "3.0.23",
  "updatedAt": "2020-04-08T14:17:16.809Z",
  "networkType": "ethereum",
  "devdoc": {
    "methods": {
      "cancelRequest(bytes32,uint256,bytes4,uint256)": {
        "params": {
          "_callbackFunctionId": "The bytes4 callback function ID specified for the request to cancel",
          "_expiration": "The expiration generated for the request to cancel",
          "_payment": "The payment specified for the request to cancel",
          "_requestId": "The ID that was generated for the request to cancel"
        }
      },
      "createRequestTo(address,bytes32,uint256,string,string,int256)": {
        "details": "This function ignores the stored Oracle contract address and will instead send the request to the address specified",
        "params": {
          "_jobId": "The bytes32 JobID to be executed",
          "_oracle": "The Oracle contract address to send the request to",
          "_path": "The dot-delimited path to parse of the response",
          "_times": "The number to multiply the result by",
          "_url": "The URL to fetch data from"
        }
      },
      "fulfill(bytes32,uint256)": {
        "details": "The recordChainlinkFulfillment protects this function from being called by anyone other than the oracle address that the request was sent to",
        "params": {
          "_data": "The answer provided by the oracle",
          "_requestId": "The ID that was generated for the request"
        }
      },
      "getChainlinkToken()": {
        "details": "This is the public implementation for chainlinkTokenAddress, which is an internal method of the ChainlinkClient contract"
      }
    },
    "title": "SimpleStorage is an example contract which requests data from the Chainlink network"
  },
  "userdoc": {
    "methods": {
      "cancelRequest(bytes32,uint256,bytes4,uint256)": {
        "notice": "Call this method if no response is received within 5 minutes"
      },
      "createRequestTo(address,bytes32,uint256,string,string,int256)": {
        "notice": "Creates a request to the specified Oracle contract address"
      },
      "fulfill(bytes32,uint256)": {
        "notice": "The fulfill method from requests created by this contract"
      },
      "getChainlinkToken()": {
        "notice": "Returns the address of the LINK token"
      },
      "withdrawLink()": {
        "notice": "Allows the owner to withdraw any LINK balance on the contract"
      }
    }
  }
}